:020000040800F2
:10000000FFFF002091D30008D5D30008D5D3000806
:10001000D5D30008D5D30008D5D3000800000000D0
:100020000000000000000000000000003DA50008E6
:10003000D5D3000800000000B9A5000845A60008B7
:10004000D5D30008D5D30008D5D30008D5D30008F0
:10005000D5D30008D5D30008D5D30008D5D30008E0
:10006000D5D30008D5D30008D5D30008ED0C00087F
:10007000D5D30008D5D30008D5D30008D5D30008C0
:10008000D5D30008D5D30008D5D30008D5D30008B0
:10009000D5D30008D5D30008D5D30008D5D30008A0
:1000A000D5D30008D5D30008D5D30008D5D3000890
:1000B000D5D30008D5D30008D5D30008D5D3000880
:1000C000D5D30008D5D30008D5D30008D5D3000870
:1000D000D5D3000871140008D5D30008D5D3000883
:1000E000B5120008D5D30008D5D30008D5D3000831
:1000F000D5D30008D5D30008D5D30008D5D3000840
:10010000D5D30008D5D30008D5D30008D5D300082F
:10011000D5D30008D5D30008D5D30008D5D300081F
:10012000D5D30008D5D30008D5D30008D5D300080F
:1001300000000000000000000000000000000000BF
:1001400000000000000000000000000000000000AF
:10015000000000000000000000000000000000009F
:10016000000000000000000000000000000000008F
:10017000000000000000000000000000000000007F
:10018000000000000000000000000000000000006F
:10019000000000000000000000000000000000005F
:1001A000000000000000000000000000000000004F
:1001B000000000000000000000000000000000003F
:1001C000000000000000000000000000000000002F
:1001D000000000000000000000000000000000001F
:0401E0005FF8E0F1F3
:1001E80008B545F2555007F00FFD4FF0060007F02F
:1001F80011FD40F21A6007F013FD07F017FD07F034
:100208001DFD08BD08B507F011FD0AF001FF014604
:1002180040F2D033C2F20003186804F09FFDB0F535
:100228007A7F06D90AF0F4FE40F2D033C2F2000316
:10023800186008BD08B54FF4407004F025FE08BDED
:1002480038B503F0DDFA01F0DFF8FFF7C9FF00F079
:1002580011FE42F20F7000F037FF4FF001004FF42B
:10026800164101F031FC4FF001004FF000010AF097
:1002780029FC4AF2C863C2F20003186042F64872C9
:10028800C2F200024FF00003137040F20004C2F201
:1002980000044DF2CC3CC2F2000C4FF09A0534F841
:1002A800131005FB03C202F108021079117150798D
:1002B8004FEA1121517103F10103102BEFD138BD21
:1002C80008B5FFF7B7FFFFF7BBFF4FF0040000F0DA
:1002D800E1F84FF0020003F0FFFF4FF0030001F0D8
:1002E800BBFC0BF06BF94FF0000008BD2DE9F005E1
:1002F800884611B34FF000074FF0010A16E003F1EA
:10030800FF3400EB4404B4F800C000EB4302158846
:10031800AC4584BF2580A2F800C003F101039BB25D
:10032800B342ECDB07F10107B84506DDC7EB010670
:10033800012EC8BF5346E2DCF4E7BDE8F00570477C
:100348002DE9F00F4FF0000A4DF2CC34C2F2000450
:100358004FF09A0B43F65C35C2F20005D1460BFB11
:100368000A4303F10802117992F805C041EA0C2CFE
:100378004FF4FA6202FB0A52108880B203F1680354
:100388009A79DB7952EA03237AD0604594BF00203A
:1003980001204FF000024FF47A7101FB0AF70BFBC2
:1003A8000A4606F198034FF04D0101FB0AF968B3BC
:1003B80007EB020135F8111089B28C454DD3197835
:1003C80093F8018041EA0821494401F1380114F801
:1003D800118004F8112004EB410191F801804FEAE3
:1003E800122881F80180197893F8018041EA0821E0
:1003F80001F1010189B293F80080197093F8018026
:100408004FEA1121597080F0010026E007EB020144
:1004180035F8111089B28C451FD21978587841EAFD
:100428000021494401F1380114F8110004F81120A1
:1004380004EB410148784FEA12204870197858783F
:1004480041EA002101F1010189B218781970587840
:100458004FEA112159704FF00100197893F8018083
:1004680041EA082109290BD802F1010292B206F1EA
:10047800680191F80680C97948EA0128904596D81C
:100488000AF1010ABAF1030F7FF468AFBDE8F00F73
:10049800704700BF00B585B000904FF0000301938E
:1004A8000293039340F67D20C0F600004EF6EC312F
:1004B800C0F600014FF400720AF088FF05B000BDD5
:1004C8002DE9F84F04464FF000064FF00305DFF81A
:1004D800A4804FF4007A4FF480794DF2CC37C2F201
:1004E80000074FF09A0B204608EB060152460CF025
:1004F800DDFD20464946FFF7F9FEB4F8F6210BFB6F
:1005080005710B4613F8100F1A7058784FEA12222B
:100518005A70B4F8602198789A70D8784FEA122205
:10052800DA70B4F8B02118791A7158794FEA1222A2
:100538005A71B4F8A02098799A71D8794FEA1222A2
:10054800DA7162890B4613F8181F1A7059784FEA46
:1005580012225A70B4F8502099789A70D9784FEAD4
:100568001222DA7005F1010506F5FA66092DBAD1ED
:10057800BDE8F88FCC5200202DE9F041ADF5027DA1
:1005880042F64873C2F200035B78092B4AD842F658
:100598004873C2F200035B78002B43D04DF2CC3392
:1005A800C2F2000393F86E2093F86F3042EA0322F8
:1005B800B2F57A7FC0F038810AE00CFB020101F144
:1005C800680191F80680C97948EA0121B14208D941
:1005D80042F64873C2F200031A7842F040021A70D9
:1005E80057E135F812801FFA88F807FB021124F842
:1005F80011800CFB020303F16803997993F80780D3
:1006080041EA082101F1010189B293F80680997144
:1006180093F807804FEA1121D97102F10102092AE2
:10062800CBD1F6E042F64873C2F200035B780D2B9B
:1006380000F2958042F64873C2F200035B78002B03
:1006480000F08D8001AD40F2D436C2F200064FF4BE
:100658000077284631463A460CF028FD42F64874A1
:10066800C2F20004637803EB03204EF6EC33CFF6B6
:10067800FF7303EB400042F65073C2F200031844C4
:1006880031463A460CF012FD28464FF48071FFF7C8
:100698002DFE617801F1FF31B5F8F6014DF2CC334A
:1006A800C2F200034FF09A0202FB013111F810CF99
:1006B800087091F801C04FEA10204870617801F184
:1006C800FF31B5F8600102FB013101F1100191F829
:1006D80002C0887091F803C04FEA1020C870617892
:1006E80001F1FF31B5F8B00102FB013101F1100150
:1006F80091F804C0087191F805C04FEA10204871BC
:10070800617801F1FF31B5F8A00002FB013101F178
:10071800100191F806C0887191F807C04FEA1020BF
:10072800C871617801F1FF31688902FB013111F864
:1007380018CF087091F801C04FEA1020487060780F
:1007480000F1FF30B5F8501002FB003303F1180335
:100758009A789970DA784FEA1121D97059E042F6FF
:100768004873C2F200035B780F2B52D842F64873E5
:10077800C2F200035B78002B4BD001AE40F2D435B7
:10078800C2F200054FF40077304629463A460CF08D
:100798008DFC42F64874C2F20004637803EB032030
:1007A8004EF6EC33CFF6FF7303EB400042F650737E
:1007B800C2F20003184429463A460CF077FC30464A
:1007C8004FF48071FFF792FD617801F1FF31B6F8BF
:1007D800FE014DF2CC32C2F200024FF09A0303FB45
:1007E800012101F1100191F804C0087191F805C0C8
:1007F8004FEA10204871607800F1FF30318803FB20
:10080800002303F118039A789970DA784FEA1121D6
:10081800D97042F64873C2F200035B780F2B38D1C7
:1008280001A8FFF74DFE34E040F2D433C2F20003D2
:10083800198889B243F65C33C2F2000323F8121018
:100848004DF2CC33C2F2000393F86E2093F86F1088
:1008580042EA012202F1010292B293F86E1083F883
:100868006E2093F86F104FEA122283F86F204FF032
:10087800010218464FF09A0C40F2E73640F2D435A0
:10088800C2F2000543F65C34C2F200044FF47A77F2
:1008980093E60DF5027DBDE8F08100BF2DE9F04F2C
:1008A80083B0FFF74DFD4FF000064DF2CC37C2F292
:1008B80000074FF09A094FF04D0B43F65C35C2F232
:1008C8000005B24609FB067202F10803197993F88C
:1008D80005C041EA0C2C134613F8701F93F80180E9
:1008E80041EA082812F8983F527843EA02230BFBA2
:1008F800063303F1370317F8132007EB43035C783B
:1009080042EA0424A04584BF002000211BD84346A6
:100918004FF000004FF000014FF47A7202FB06FE20
:100928000FFA8CFC0EEB030235F8122012B2CCEB56
:10093800020202FB02F2801841EBE27103F10103AB
:100948009BB29C42EED20BF037F9CDE90001C8F119
:1009580001084444A0B20BF0EFF802460B46DDE96B
:1009680000010BF089FA0AF053FE0BF0F5FB80B298
:1009780009FB0A7A0AF108039A799871DA794FEA39
:100988001020D87106F10106032E9AD103B0BDE8F4
:10099800F08F00BF2DE9F04140F2D433C2F20003DA
:1009A800B3F800C20CF1010C1FFA8CFCA3F800C2CA
:1009B8004FF000031A4640F2D435C2F2000505F59F
:1009C800017135F8120080B2CC582044C85002F1A9
:1009D800010203F10403102AF3D1BCF1140F46D12C
:1009E80042F64873C2F200031A7842F020021A70E5
:1009F80040F2D433C2F200034FF00004A3F80042DF
:100A080042F60040C4F20100214608F011FA40F213
:100A18000800C4F2020005F03BFC224640F2D43044
:100A2800C2F2000000F501704CF6CD48CCF6CC4877
:100A38004DF2CC35C2F200054FF09A07264601590F
:100A4800A8FB0131C1F30F1107FB025303F108039F
:100A580093F802C0997093F803C04FEA1121D97036
:100A6800065102F1010204F10404112AE7D1BDE89C
:100A7800F08100BFF8B542F64C75C2F200054FF0A0
:100A880000064FF0FF3742F64874C2F200042868A7
:100A980031463A46334609F089FE237803F02003AD
:100AA800DBB213B9FFF776FFF1E7FFF765FDEEE775
:100AB80030B58DB040F20800C4F2020005F0E8FB42
:100AC80042F24C43C4F20103009340F2D433C2F221
:100AD800000301934FF00003029342F64873C2F2F9
:100AE80000035B78082B99BF092303934FF48073A5
:100AF80003934FF0000504954FF0800305934FF4DE
:100B0800807306934FF4806307934FF02003089394
:100B18004FF4405309930A9540F20804C4F20204C2
:100B28002046694605F078FC4FF00B038DF82C3011
:100B38004FF00F038DF82D308DF82E504FF0010532
:100B48008DF82F500BA804F0A9F920464FF00201A8
:100B58002A4605F0A7FC2046294605F093FC0DB06F
:100B680030BD00BF2DE9F04186B042F64873C2F2AD
:100B780000035B780F2B00F2B28042F64873C2F292
:100B880000035B78002B00F0AA80FFF791FF42F288
:100B98000040C4F2010004F0DFFB4FF000030193B2
:100BA8004FF001038DF8083042F64873C2F2000393
:100BB8005B78082B9DBF00238DF809300393012330
:100BC80082BF8DF809304FF4602303934FF0000380
:100BD800049342F64873C2F200035B78082B99BF6E
:100BE80009238DF8143001238DF8143042F20040A7
:100BF800C4F2010001A904F0C9F942F64873C2F22F
:100C080000035B78082B1AD84FF001074FF0000655
:100C180042F20048C4F2010840F22004C2F2000483
:100C280004F110054046A15DFAB2AB5D04F042FA4A
:100C380006F1010607F10107092EF3D114E042F687
:100C48004873C2F2000359785B7840F22002C2F27E
:100C58000002134442F20040C4F20100515C4FF01C
:100C680001021B7C04F026FA42F20040C4F20100A3
:100C78004FF0010104F0CCF942F64873C2F20003C8
:100C88005B78082B07D842F20040C4F201004FF00D
:100C9800010104F069FA42F20044C4F2010420465A
:100CA8004FF0010104F0A8F9204604F0C9F942F216
:100CB8000044C4F20104204604F0C8F90028FAD11F
:100CC80042F20040C4F2010004F0C4F942F20044C8
:100CD800C4F20104204604F0C3F90028FAD106B092
:100CE800BDE8F08100B583B04FF0000301934FF0E9
:100CF800020005F00DFC40B34FF0010005F01CFCAC
:100D080042F64873C2F200035B78082B12D942F608
:100D18004873C2F200031B7803F04003DBB24BB107
:100D280042F60040C4F201004FF0000108F080F8DC
:100D3800FFF718FF42F64C73C2F2000318684FF031
:100D4800000101AA0B4609F0F5FD019B0BB109F062
:100D58000BFC03B000BD00BF30B58DB040F20804F5
:100D6800C4F20204204605F093FA42F24C43C4F25E
:100D78000103009340F2D433C2F2000301934FF011
:100D8800000502954FF01003039304954FF080037C
:100D980005934FF4807306934FF4806307934FF0E5
:100DA800200308934FF4405309930A952046694657
:100DB80005F032FB4FF00B038DF82C304FF00F038A
:100DC8008DF82D308DF82E504FF001058DF82F50ED
:100DD8000BA804F063F820464FF002012A4605F0FC
:100DE80061FB2046294605F04DFB0DB030BD00BF24
:100DF80030B583B04FF0FF03ADF804304FF0000575
:100E08008DF8075001AC40F60000C4F201002146FD
:100E180006F0EEFA4FF00303ADF804308DF80750F2
:100E280040F60040C4F20100214606F0E1FA4FF016
:100E38003F03ADF804308DF8075041F20000C4F2CA
:100E48000100214606F0D4FA03B030BD08B54FF0D2
:100E58001C004FF0010107F001F94FF400704FF04A
:100E6800010107F0FBF84FF00100014607F0E2F836
:100E780008BD00BFF0B587B0FFF7E8FFFFF7B8FF80
:100E8800FFF76AFF4FF4004007F020F842F20044F1
:100E9800C4F20104204604F05FFA4FF00006019600
:100EA8004FF001058DF808508DF8096003960496F7
:100EB8004FF010078DF81470204601A904F066F869
:100EC800204631462A464FF0070304F0F3F820463F
:100ED80029464FF002024FF0070304F0EBF82046D2
:100EE8004FF002014FF003024FF0070304F0E2F85D
:100EF80020464FF003014FF004024FF0070304F0BF
:100F0800D9F820464FF004014FF005024FF00703CF
:100F180004F0D0F820464FF005014FF006024FF0DC
:100F2800070304F0C7F820464FF006014FF0070208
:100F3800134604F0BFF820464FF007014FF00802AF
:100F48000B4604F0B7F820464FF008014FF00902AD
:100F58004FF0070304F0AEF820464FF009014FF0B8
:100F68000A024FF0070304F0A5F820464FF00A01E3
:100F78004FF00B024FF0070304F09CF820464FF0A7
:100F88000B014FF00C024FF0070304F093F82046D2
:100F98004FF00C014FF00D024FF0070304F08AF8F0
:100FA80020464FF00D014FF00E024FF0070304F0FA
:100FB80081F820464FF00E014FF00F024FF0070363
:100FC80004F078F820464FF00F013A464FF0070337
:100FD80004F070F82046294604F01AF820462946FD
:100FE80004F0C2F82046294604F006F8204604F02A
:100FF80027F842F20044C4F20104204604F026F81F
:101008000028FAD142F20040C4F2010004F022F8AC
:1010180042F20044C4F20104204604F021F80028FA
:10102800FAD14FF001004FF0000109F04BFD42F6F4
:101038004C73C2F20003186007B0F0BD70B588B0F9
:10104800054642F60044C4F20104A0F1020120461C
:1010580089B208F0CDF905AE304607F0BFFEADF80D
:1010680018504FF01103ADF814304FF00003ADF8ED
:101078001A30ADF816302046314607F085FC4FF09F
:101088006003ADF804304FF00105ADF80650ADF837
:101098000A504FF00203ADF80C30204601A907F0C2
:1010A800F7FC2046294607F0D3FE2046294607F0DC
:1010B800BFFE08B070BD00BF08B54FF400604FF028
:1010C800010106F0CBFF08BD70B588B0064642F6B0
:1010D8000044C4F20104204608F01AFCFFF7ECFFB4
:1010E80005AD284607F07AFEADF818604FF01103F9
:1010F800ADF814304FF00003ADF81A30ADF81630E3
:101108002046294607F040FC4FF06003ADF8043054
:101118004FF00105ADF80650ADF80A504FF0020344
:10112800ADF80C30204601A907F0B2FC204629464C
:1011380007F08EFE2046294607F07AFE08B070BDFB
:1011480038B541F60004C4F2010420464FF40041CA
:1011580006F0CEF920464FF4007106F0C9F9204692
:101168004FF4807106F0C4F9204606F0B1F9C5B213
:1011780042F64873C2F200035D70A5F10203DBB2C8
:10118800182B00F2928041F60004C4F201042046B4
:101198004FF4004106F0ACF920464FF4007106F018
:1011A800A7F920464FF4807106F0A0F9A5F10205D1
:1011B800204606F08DF9C0B24DF2CC33C2F20003DE
:1011C8004FF09A0202FB053505F1200318702046FE
:1011D8004FF4004106F08CF920464FF4007106F0F8
:1011E80085F920464FF4807106F082F9204606F012
:1011F8006FF9C0B205F12103187020464FF4004181
:1012080006F076F920464FF4007106F06FF9204693
:101218004FF4807106F06AF9204606F059F9C0B219
:1012280005F12203187020464FF4004106F05EF9DC
:1012380020464FF4007106F05BF920464FF48071A8
:1012480006F056F9204606F043F9C0B205F123032B
:10125800187020464FF4004106F048F920464FF434
:10126800007106F045F920464FF4807106F03EF90A
:10127800204606F02DF9C0B205F124031870204667
:101288004FF4004106F032F920464FF4007106F0A1
:101298002DF920464FF4807106F02AF9204606F011
:1012A80017F9C0B205F12505287038BD08B54FF407
:1012B800805005F0D1F990B34FF4805005F0DCF977
:1012C80042F64873C2F200031B7803F01003DBB246
:1012D8002BB3FFF735FF42F64873C2F200035B7881
:1012E800012B06D1FFF73EFC4FF46A70FFF7A6FE0C
:1012F80015E042F64873C2F200035B78092B0ED959
:1013080042F64873C2F200035B780F2B07D842F20B
:101318000040C4F201004FF0010103F0A5FE08BD32
:10132800F0B583B04FF43053ADF804304FF01007E8
:101338008DF807704FF001058DF8065041F600044E
:10134800C4F2010401AE2046314606F051F82046A9
:101358004FF4806106F0CCF820464FF4006106F0A7
:10136800C5F820464FF4005106F0C2F848F20033A1
:10137800ADF804308DF807708DF8065020463146D8
:1013880006F036F820464FF4807106F0B1F8204692
:101398004FF4007106F0ACF820464FF4004106F017
:1013A800A7F84FF48043ADF804304FF048078DF8A4
:1013B80007708DF806502046314606F019F84FF4AC
:1013C8008053ADF804304FF004038DF807308DF8E2
:1013D80006502046314606F00BF84FF0FF03ADF8F3
:1013E80004308DF807708DF806502046314605F018
:1013F800FFFF03B0F0BD00BF08B54FF041004FF04C
:10140800010106F02BFE08BD30B585B0FFF7F4FFEB
:10141800FFF786FF4FF004004FF00C0106F0E2F8EA
:101428004FF4805302934FF000058DF80C504FF0A5
:1014380008038DF80D304FF001048DF80E400DEBC8
:10144800030005F099F84FF028038DF804304FF0A9
:101458000F038DF805308DF806508DF8074001A868
:1014680003F01CFD05B030BD10B582B04FF000038D
:10147800019343F60000C4F2010040F2266108F02F
:10148800D9FC01282FD140F21C63C2F2000318686E
:101498000DF1030101AA09F01FF940B143F600005C
:1014A800C4F201009DF8031008F024FC1BE043F689
:1014B8000004C4F2010420464FF0400108F0B4FCD7
:1014C800204640F226614FF0000208F09FFB2046BC
:1014D8004FF0200108F0A8FC204640F225514FF0BB
:1014E800010208F093FB43F60000C4F2010040F249
:1014F800255108F09FFC012812D143F60000C4F2E0
:10150800010008F0FDFB02A901F8050D40F21C637B
:10151800C2F20003D86801AA4FF0000309F00AFAE2
:10152800019B0BB109F020F802B010BD10B582B0D4
:10153800044602AB03F8011D40F21C61C2F200012F
:1015480051F8200019464FF0000309F01FFA01284E
:1015580018BF00200DD14DF2D833C0F6000353F860
:10156800240040F227714FF0010208F04FFB4FF0C2
:10157800010002B010BD00BF2DE9F04781460D46BD
:101588009046012814D143F60004C4F20104204611
:1015980040F225514FF0000208F038FB20464FF08A
:1015A800400108F041FC2046297808F0A3FB30E010
:1015B800022814D144F20044C4F20004204640F248
:1015C80025514FF0000208F021FB20464FF0400162
:1015D80008F02AFC2046297808F08CFB19E003283B
:1015E80044D144F60000C4F2000040F225514FF007
:1015F800000208F00BFB39E044F60004C4F20004D2
:1016080020464FF0400108F00FFC2046297808F0EA
:1016180071FB18F1FF3817D005F101044FF00006EF
:1016280040F21C67C2F2000709F1FF35B24657F8CD
:10163800250021465246534609F0A8F904F1010451
:1016480006F101064645F2D34DF2D833C0F6000341
:1016580009F1FF3953F8290040F226614FF00102E1
:1016680008F0D4FA4FF00100BDE8F087B9F1030F94
:10167800CFD1C1E72DE9F84F05468A4690460228A2
:10168800C8BF002034DC2AB34FF0000440F21C67C6
:10169800C2F200074FF00506A1464DF2D83BC0F64E
:1016A800000B57F8250004EB0A0132464B4609F0B7
:1016B8006DF901280AD05BF8250040F227714FF038
:1016C800010208F0A3FA304609F00CFE04F1010407
:1016D800A045E6D84DF2D833C0F6000353F82500EC
:1016E80040F227714FF0010208F090FA4FF0010024
:1016F800BDE8F88F08B50228C8BF00200EDC40F20C
:101708001C63C2F2000303EB8000C0684FF00003C3
:1017180009F04CF8012814BF0020012008BD00BFC3
:101728002DE9F8450D4600F1FF3640F21C63C2F280
:10173800000303EB8603D8684FF00A024FF000035A
:1017480009F034F8002836D02B787B2B33D105F1FB
:10175800010540F21C63C2F2000303EB8603D8685C
:1017680029464FF00A024FF0000309F01FF810B3A2
:1017780095F800A0AAF1020ABAF1000F1EDD05F1E2
:1017880001054FF0000440F21C63C2F2000303EBB2
:1017980086064FF00A07A046F06829463A464346AF
:1017A80009F004F838B104F10104E4B2544505DA4B
:1017B80005F10105F0E74FF0000001E04FF00100EE
:1017C800BDE8F88508B54FF004004FF0010106F0B8
:1017D80045FC4FF480404FF0010106F03FFC08BD86
:1017E80008B54FF010004FF0010106F037FC4FF03C
:1017F8000100014606F032FC4FF480204FF0010151
:1018080006F040FC08BD00BF08B54FF020004FF0BF
:10181800010106F023FC4FF00100014606F01EFC12
:101828004FF400304FF0010106F02CFC08BD00BF5A
:1018380030B583B04FF48063ADF804304FF0040343
:101848008DF8073040F60004C4F201040DEB0305DF
:101858002046294605F0CCFD4FF40073ADF804305E
:101868004FF003038DF806304FF018038DF807305A
:101878002046294605F0BCFD03B030BD30B583B025
:101888004FF40063ADF804304FF004038DF80730CF
:1018980041F20004C4F201040DEB03052046294679
:1018A80005F0A6FD4FF48063ADF804304FF0030354
:1018B8008DF806304FF018038DF80730204629467A
:1018C80005F096FD40F21000C0F214004FF001013F
:1018D80005F03AFE03B030BD30B583B04FF0400399
:1018E800ADF804304FF004038DF8073041F200449E
:1018F800C4F201040DEB03052046294605F078FDE6
:101908004FF02003ADF804304FF003038DF8063094
:101918004FF018038DF807302046294605F068FD7A
:101928004FF008004FF0010105F00EFE03B030BD86
:1019380070B586B002904FF48052ADF80C204FF08D
:101948000005ADF80E50ADF81050ADF814504FF03A
:101958000C02ADF812204FF00F028DF805208DF81B
:1019680006504FF001068DF8076044F60004C4F2F3
:101978000004204602A908F095FA204640F22551B5
:101988002A4608F043F9204640F226612A4608F024
:101998003DF906A84FF0270300F8143D03F07EFA3E
:1019A8002046314608F022F920464FF0400108F061
:1019B8003BFA06B070BD00BF70B586B002904FF418
:1019C8008052ADF80C204FF00005ADF80E504FF4E2
:1019D8008062ADF81020ADF814504FF00C02ADF84D
:1019E80012204FF00F028DF805208DF806504FF0A9
:1019F80001068DF8076044F20044C4F20004204652
:101A080002A908F04FFA204640F225512A4608F06C
:101A1800FDF8204640F226612A4608F0F7F806A8A5
:101A28004FF0260300F8143D03F038FA20463146FB
:101A380008F0DCF820464FF0400108F0F5F906B050
:101A480070BD00BF30B587B002904FF000031D464F
:101A5800ADF80C30ADF80E30ADF81030ADF81430EC
:101A68004FF00C03ADF8123043F60004C4F2010441
:101A7800204602A908F016FA4FF025038DF8043025
:101A88004FF00F038DF805308DF806504FF0010523
:101A98008DF8075001A803F001FA204640F22551BD
:101AA8002A4608F0B3F8204640F226612A4608F094
:101AB800ADF82046294608F099F820464FF0400135
:101AC80008F0B2F907B030BDF8B504460E46022852
:101AD80046D8002844D000F1FF374FF4FA604FF0A1
:101AE800010108F0EFFF40F21C65C2F2000545F85D
:101AF80027004FF064004FF0010108F0E3FF05EB09
:101B08008705E860012C13D1FFF75CFEFFF790FE14
:101B18003046FFF797FF43F60000C4F2010040F299
:101B280025514FF0010208F071F84FF0010019E05B
:101B3800022C09D1FFF768FEFFF7CEFE3046FFF70B
:101B48003BFF4FF001000DE0032C09D1FFF748FEE1
:101B5800FFF794FE3046FFF7EBFE4FF0010001E07F
:101B68004FF00000F8BD00BF10B44478A4F1030C96
:101B7800BCF1000FD8BF00220CDD4FF00002134665
:101B880003EB000149780A44D2B203F10103DBB246
:101B98006345F5DB04EB000313F8023C934245D19F
:101BA80004EB000111F8013C7D2B3FD1C37813B938
:101BB800062C0AD137E0012B02D1062C0AD132E0DB
:101BC800022B02D1062C0AD12DE0032B02D1072CBF
:101BD8000AD128E0042B02D1072C0AD123E0052BD7
:101BE80002D1062C0AD11EE0062B02D1072C0CD1FB
:101BF80019E0072B02D1062C0ED114E0082B04D1D2
:101C0800062C14BF0020012012E0092B04D1062C59
:101C180014BF002001200BE00A2B07D1072C14BFAA
:101C28000020012004E04FF0010001E04FF0000027
:101C380010BC704703460A4611B94FF000000AE08D
:101C48004FF00000014613F801C06044C0B201F132
:101C580001018A42F7D8704700B585B000904FF06F
:101C6800000301930293039343F29970C0F60000B6
:101C78004EF6F431C0F600014FF4007209F0A6FBED
:101C880005B000BD70B50C4616464FF07B030B70CF
:101C98000D464FF0310305F8013F83788B70C37808
:101CA800CB7010F8043F0B710378022B84BF052317
:101CB800037001784FEA410101F103014DF2CC3381
:101CC800C2F200034FF09A0202FB013101F1200138
:101CD8000978617101784FEA410101F1030102FBC2
:101CE800013303F121031B78A3710178C1EB0111C2
:101CF8004FF67033C2F2000304F1070003EB8101D1
:101D08004FF028020BF0D2F929782846A1F10301F7
:101D1800FFF790FF84F82F004FF07D0384F83030F0
:101D28002A7832604FF001002146FFF725FC70BD8C
:101D38002DE9F0410C46034613F8042F022A5AD81D
:101D48004EF67075C2F2000505EB82254FF00001D2
:101D58000E460F46B5F800C00FFA8CFEB645C4BF54
:101D68001FFA8CF6CFB201F1010105F10205B1F5B8
:101D7800007FEFD14FF07B012170A0464FF030017A
:101D880008F8011F8178A170C178E1701B78237170
:101D980067714FF014014FF000034EF67075C2F2F0
:101DA80000054FEA422003F1030C4FEA4C0C03F103
:101DB800010307FB030235F812E004F80CE00CEB12
:101DC800040635F912204FEA2222727011F1FF3110
:101DD800E9D140464FF02D01FFF72CFF84F82E0083
:101DE8004FF07D0384F82F304FF0010021464FF06B
:101DF8003002FFF7C1FBBDE8F08100BF70B50C46AB
:101E0800034613F8042F082A37D84FF07B012170B6
:101E180026466FF0300106F8011F8178A170C1785D
:101E2800E1701B7823714FF0000343F65C35C2F272
:101E380000054FF47A7101FB02F202EB030135F859
:101E480011C004EB0301CCF30B1C81F805C003F1AE
:101E58000103C82BF1D130464FF0CC01FFF7EAFE61
:101E680084F8CD004FF07D0384F8CE304FF00100A8
:101E780021464FF0CF02FFF77FFB70BD70B50C46CF
:101E880016464FF07B030B700D464FF0060305F81E
:101E9800013F83788B70C378CB7028464FF00301DD
:101EA800FFF7C8FE20714FF07D0363712A78326016
:101EB8004FF001002146FFF75FFB70BD70B54FF092
:101EC800000C4DF2CC35C2F200054FF09A0606FB25
:101ED8000C5303F1080393F802E0DC784EEA042E71
:101EE8001C7983F804E05C794FEA1E2E83F805E03C
:101EF8000CF1010CBCF1100FE9D1FFF7BFFF70BD69
:101F080070B50C4616464FF07B030B700D464FF02C
:101F1800070305F8013F83788B70C378CB7042F6CE
:101F28004873C2F200031B780B7128464FF0040176
:101F3800FFF780FE60714FF07D03A3712A7832604D
:101F48004FF001002146FFF717FB70BD2DE9F04F58
:101F5800A9B082460D4693464DF2CC34C2F2000435
:101F680094F85C3994F85D2943EA022394F85E29D1
:101F780043EA024394F85F0994F8302094F83160FA
:101F880042EA062694F8322046EA024694F83320BC
:101F980046EA026643EA006009F0CEFD80468946BB
:101FA800304609F0C9FD02460B464046494609F04D
:101FB80063FFE1A3D3E9002309F034FE4FF00002E8
:101FC80040F20003C4F2590309F02CFE0AF0C4F8E9
:101FD800ADF89C0094F8603994F8612943EA02232B
:101FE80094F8622943EA024394F8630994F830208C
:101FF80094F8316042EA062694F8322046EA02460E
:1020080094F8332046EA026643EA006009F094FD3A
:1020180080468946304609F08FFD02460B46404609
:10202800494609F029FFC4A3D3E9002309F0FAFDC2
:102038004FF0000240F20003C4F2590309F0F2FD28
:102048000AF08AF8ADF8980094F85C3994F85D299C
:1020580043EA022394F85E2943EA024394F85F09AD
:1020680094F8302094F8316042EA062694F8322039
:1020780046EA024694F8332046EA026643EA0060DC
:1020880009F05AFD80468946304609F055FD02465A
:102098000B464046494609F0EFFEA7A3D3E90023C3
:1020A80009F0C0FD4FF0000240F20003C4F25903EA
:1020B80009F0B8FD0AF050F8ADF8940094F8F63934
:1020C80094F8F72943EA022394F8F82943EA0243EB
:1020D80094F8F90994F8302094F8316042EA062619
:1020E80094F8322046EA024694F8332046EA02661B
:1020F80043EA006009F020FD80468946304609F031
:102108001BFD02460B464046494609F0B5FE8AA328
:10211800D3E9002309F086FD4FF0000240F20003E6
:10212800C4F2590309F07EFD0AF016F8ADF89000E4
:1021380094F8FA3994F8FB2943EA022394F8FC2925
:1021480043EA024394F8FD0994F8302094F831608A
:1021580042EA062694F8322046EA024694F83320EA
:1021680046EA026643EA006009F0E6FC80468946D2
:10217800304609F0E1FC02460B464046494609F064
:102188007BFE6DA3D3E9002309F04CFD4FF000025C
:1021980040F20003C4F2590309F044FD09F0DCFFE2
:1021A800ADF88C0094F8F63994F8F72943EA02233D
:1021B80094F8F82943EA024394F8F90994F830208E
:1021C80094F8316042EA062694F8322046EA02463C
:1021D80094F8332046EA026643EA006009F0ACFC52
:1021E80080468946304609F0A7FC02460B46404621
:1021F800494609F041FE50A3D3E9002309F012FD36
:102208004FF0000240F20003C4F2590309F00AFD3E
:1022180009F0A2FFADF8880094F8903A94F8912A52
:1022280043EA022394F8922A43EA024394F8930A71
:1022380094F8CA2094F8CB6042EA062694F8CC2099
:1022480046EA024694F8CD2046EA026643EA006070
:1022580009F072FC80468946304609F06DFC02465A
:102268000B464046494609F007FE33A3D3E900234D
:1022780009F0D8FC4FF0000240F20003C4F2590301
:1022880009F0D0FC09F068FFADF8840094F8943A9E
:1022980094F8952A43EA022394F8962A43EA0243DB
:1022A80094F8970A94F8CA2094F8CB6042EA062674
:1022B80094F8CC2046EA024694F8CD2046EA026615
:1022C80043EA006009F038FC80468946304609F048
:1022D80033FC02460B464046494609F0CDFD16A39D
:1022E800D3E9002309F09EFC4FF0000240F20003FE
:1022F800C4F2590309F096FC09F02EFFADF88000EE
:1023080094F8903A94F8912A43EA022394F8922A8E
:1023180043EA024394F8930A94F8CA2094F8CB60ED
:1023280042EA062694F8CC2046EA024694F8CD20E4
:1023380046EA026604E000BF000000000080764024
:1023480043EA006009F0F8FB80468946304609F008
:10235800F3FB02460B464046494609F08DFDE2A3D1
:10236800D3E9002309F05EFC4FF0000240F20003BD
:10237800C4F2590309F056FC09F0EEFEADF87C00F2
:1023880094F82A3B94F82B2B43EA022394F82C2B3D
:1023980043EA024394F82D0B94F8FE2194F8FF6168
:1023A80042EA062694F8002246EA024694F80122F8
:1023B80046EA026643EA006009F0BEFB80468946A9
:1023C800304609F0B9FB02460B464046494609F03B
:1023D80053FDC5A3D3E9002309F024FC4FF0000204
:1023E80040F20003C4F2590309F01CFC09F0B4FEE2
:1023F800ADF8780094F82E3B94F82F2B43EA02238B
:1024080094F8302B43EA024394F8310B94F8FE21F8
:1024180094F8FF6142EA062694F8002246EA02464A
:1024280094F8012246EA026643EA006009F084FB58
:1024380080468946304609F07FFB02460B464046F7
:10244800494609F019FDA8A3D3E9002309F0EAFBDE
:102458004FF0000240F20003C4F2590309F0E2FB16
:1024680009F07AFEADF8740094F82A3B94F82B2B07
:1024780043EA022394F82C2B43EA024394F82D0BE9
:1024880094F8FE2194F8FF6142EA062694F80022A7
:1024980046EA024694F8012246EA026643EA0060E8
:1024A80009F04AFB80468946304609F045FB02465A
:1024B8000B464046494609F0DFFC8BA3D3E90023CD
:1024C80009F0B0FB4FF0000240F20003C4F25903D8
:1024D80009F0A8FB09F040FEADF8700094F8C43B81
:1024E80094F8C52B43EA022394F8C62B43EA024327
:1024F80094F8C70B94F8FE2194F8FF6142EA062687
:1025080094F8002246EA024694F8012246EA026656
:1025180043EA006009F010FB80468946304609F01E
:102528000BFB02460B464046494609F0A5FC6EA344
:10253800D3E9002309F076FB4FF0000240F20003D4
:10254800C4F2590309F06EFB09F006FEADF86C0001
:1025580094F8C83B94F8C92B43EA022394F8CA2B91
:1025680043EA024394F8CB0B94F8FE2194F8FF61F8
:1025780042EA062694F8002246EA024694F8012226
:1025880046EA026643EA006009F0D6FA80468946C0
:10259800304609F0D1FA02460B464046494609F052
:1025A8006BFC51A3D3E9002309F03CFB4FF0000278
:1025B80040F20003C4F2590309F034FB09F0CCFDE2
:1025C800ADF8680094F8C43B94F8C52B43EA02239D
:1025D80094F8C62B43EA024394F8C70B94F8FE21FB
:1025E80094F8FF6142EA062694F8002246EA024679
:1025F80094F8012246EA026643EA006009F09CFA70
:1026080080468946304609F097FA02460B4640460E
:10261800494609F031FC34A3D3E9002309F002FB51
:102628004FF0000240F20003C4F2590309F0FAFA2D
:1026380009F092FDADF8640094F85E3C94F85F2CC4
:1026480043EA022394F8602C43EA024394F8610CAD
:1026580094F8322394F8331342EA012294F834139D
:1026680042EA014294F8354342EA046443EA0060CE
:1026780009F062FA06460F46204609F05DFA02465E
:102688000B463046394609F0F7FB17A3D3E9002378
:1026980009F0C8FA4FF0000240F20003C4F25903EF
:1026A80009F0C0FA09F058FDADF860004DF2CC34DD
:1026B800C2F2000494F8623C94F8632C43EA0223C3
:1026C80094F8642C43EA024394F8650C94F8322396
:1026D80094F8336342EA062694F8342346EA02461D
:1026E80006E000BFAFF300800000000000807640E5
:1026F80094F8352346EA026643EA006009F01CFABA
:1027080080468946304609F017FA02460B4640468D
:10271800494609F0B1FBE2A3D3E9002309F082FAA4
:102728004FF0000240F20003C4F2590309F07AFAAC
:1027380009F012FDADF85C0094F85E3C94F85F2C4B
:1027480043EA022394F8602C43EA024394F8610CAC
:1027580094F8322394F8336342EA062694F8342333
:1027680046EA024694F8352346EA026643EA0060E0
:1027780009F0E2F980468946304609F0DDF902465B
:102788000B464046494609F077FBC5A3D3E9002329
:1027980009F048FA4FF0000240F20003C4F259036E
:1027A80009F040FA09F0D8FCADF8580094F8F83C64
:1027B80094F8F92C43EA022394F8FA2C43EA0243EA
:1027C80094F8FB0C94F8FE2194F8FF6142EA06267F
:1027D80094F8002246EA024694F8012246EA026684
:1027E80043EA006009F0A8F980468946304609F0B6
:1027F800A3F902460B464046494609F03DFBA8A30B
:10280800D3E9002309F00EFA4FF0000240F200036A
:10281800C4F2590309F006FA09F09EFCADF8540019
:1028280094F8FC3C94F8FD2C43EA022394F8FE2C1F
:1028380043EA024394F8FF0C94F8FE2194F8FF61F0
:1028480042EA062694F8002246EA024694F8012253
:1028580046EA026643EA006009F06EF98046894656
:10286800304609F069F902460B464046494609F0E8
:1028780003FB8BA3D3E9002309F0D4F94FF000023E
:1028880040F20003C4F2590309F0CCF909F064FCE2
:10289800ADF8500094F8F83C94F8F92C43EA022378
:1028A80094F8FA2C43EA024394F8FB0C94F8FE21BE
:1028B80094F8FF6142EA062694F8002246EA0246A6
:1028C80094F8012246EA026643EA006009F034F906
:1028D80080468946304609F02FF902460B464046A5
:1028E800494609F0C9FA6EA3D3E9002309F09AF919
:1028F8004FF0000240F20003C4F2590309F092F9C4
:1029080009F02AFCADF84C0094F8923D94F8932D08
:1029180043EA022394F8942D43EA024394F8950D70
:1029280094F8322394F8336342EA062694F8342361
:1029380046EA024694F8352346EA026643EA00600E
:1029480009F0FAF880468946304609F0F5F802465B
:102958000B464046494609F08FFA51A3D3E90023B4
:1029680009F060F94FF0000240F20003C4F2590385
:1029780009F058F909F0F0FBADF8480094F8963DD5
:1029880094F8972D43EA022394F8982D43EA0243DA
:1029980094F8990D94F8322394F8336342EA0626A2
:1029A80094F8342346EA024694F8352346EA026648
:1029B80043EA006009F0C0F880468946304609F0CD
:1029C800BBF802460B464046494609F055FA34A37F
:1029D800D3E9002309F026F94FF0000240F2000382
:1029E800C4F2590309F01EF909F0B6FBADF844002A
:1029F80094F8923D94F8932D43EA022394F8942D89
:102A080043EA024394F8950D94F8322394F833631B
:102A180042EA062694F8342346EA024694F8352317
:102A280046EA026643EA006009F086F8804689466D
:102A3800304609F081F802460B464046494609F0FF
:102A48001BFA17A3D3E9002309F0ECF84FF00002B2
:102A580040F20003C4F2590309F0E4F809F07CFBE2
:102A6800ADF8400094F82C3E94F82D2E43EA02234A
:102A780094F82E2E43EA024394F82F0E94F8662415
:102A880094F8676442EA062694F8682446EA0246FF
:102A980094F8692446EA026606E000BFAFF30080B6
:102AA800000000000080764043EA006009F044F826
:102AB80080468946304609F03FF802460B464046B4
:102AC800494609F0D9F9E2A3D3E9002309F0AAF8A5
:102AD8004FF0000240F20003C4F2590309F0A2F8D3
:102AE80009F03AFBADF83C0094F8303E94F8312EEA
:102AF80043EA022394F8322E43EA024394F8330E51
:102B080094F8662494F8676442EA062694F86824E0
:102B180046EA024694F8692446EA026643EA0060F7
:102B280009F00AF880468946304609F005F8024659
:102B38000B464046494609F09FF9C5A3D3E900234F
:102B480009F070F84FF0000240F20003C4F2590394
:102B580009F068F809F000FBADF8380094F82C3E4D
:102B680094F82D2E43EA022394F82E2E43EA0243CA
:102B780094F82F0E94F8662494F8676442EA0626BF
:102B880094F8682446EA024694F8692446EA0266FC
:102B980043EA006008F0D0FF80468946304608F0D6
:102BA800CBFF02460B464046494609F065F9A8A303
:102BB800D3E9002309F036F84FF0000240F2000391
:102BC800C4F2590309F02EF809F0C6FAADF834003A
:102BD80094F8C63E94F8C72E43EA022394F8C82E08
:102BE80043EA024394F8C90E94F89A2594F89B6531
:102BF80042EA062694F89C2546EA024694F89D2562
:102C080046EA026643EA006008F096FF8046894675
:102C1800304608F091FF02460B464046494609F007
:102C28002BF98BA3D3E9002308F0FCFF4FF0000237
:102C380040F20003C4F2590308F0F4FF09F08CFADB
:102C4800ADF8300094F8CA3E94F8CB2E43EA02233C
:102C580094F8CC2E43EA024394F8CD0E94F89A25C2
:102C680094F89B6542EA062694F89C2546EA0246B3
:102C780094F89D2546EA026643EA006008F05CFF86
:102C880080468946304608F057FF02460B464046C4
:102C9800494609F0F1F86EA3D3E9002308F0C2FF12
:102CA8004FF0000240F20003C4F2590308F0BAFFE3
:102CB80009F052FAADF82C0094F8C63E94F8C72EE5
:102CC80043EA022394F8C82E43EA024394F8C90E53
:102CD80094F89A2594F89B6542EA062694F89C2570
:102CE80046EA024694F89D2546EA026643EA0060F1
:102CF80008F022FF80468946304608F01DFF02464C
:102D08000B464046494609F0B7F851A3D3E90023DA
:102D180008F088FF4FF0000240F20003C4F25903A4
:102D280008F080FF09F018FAADF8280094F866302A
:102D380094F8672043EA022394F8682043EA0243A0
:102D480094F8690094F8222094F8236042EA062651
:102D580094F8242046EA024694F8252046EA0266BA
:102D680043EA006008F0E8FE80468946304608F0ED
:102D7800E3FE02460B464046494609F07DF834A377
:102D8800D3E9002308F04EFF4FF0000240F20003A1
:102D9800C4F2590308F046FF09F0DEF9ADF8240043
:102DA80094F8003194F8012143EA022394F80221AF
:102DB80043EA024394F8030194F8BC2094F8BD1048
:102DC80042EA012294F8BE1042EA014294F8BF4058
:102DD80042EA046443EA006008F0AEFE06460F4685
:102DE800204608F0A9FE02460B463046394609F04F
:102DF80043F817A3D3E9002308F014FF4FF00002AB
:102E080040F20003C4F2590308F00CFF09F0A4F9DA
:102E1800ADF820004DF2CC34C2F2000494F89A3197
:102E280094F89B2143EA022394F89C2143EA024345
:102E380094F89D0194F8562194F8576142EA0626C1
:102E480094F8582146EA024606E000BFAFF3008036
:102E5800000000000080764094F8592146EA026696
:102E680043EA006008F068FE80468946304608F06C
:102E780063FE02460B464046494608F0FDFFDAA3CA
:102E8800D3E9002308F0CEFE4FF0000240F2000321
:102E9800C4F2590308F0C6FE09F05EF9ADF81C004B
:102EA80094F8343294F8352243EA022394F836220F
:102EB80043EA024394F8370294F8FE2194F8FF613C
:102EC80042EA062694F8002246EA024694F80122CD
:102ED80046EA026643EA006008F02EFE804689460C
:102EE800304608F029FE02460B464046494608F09F
:102EF800C3FFBDA3D3E9002308F094FE4FF00002FE
:102F080040F20003C4F2590308F08CFE09F024F9DA
:102F1800ADF8180094F8683394F8692343EA02235B
:102F280094F86A2343EA024394F86B0394F8322333
:102F380094F8336342EA062694F8342346EA0246B4
:102F480094F8352346EA026643EA006008F0F4FD87
:102F580080468946304608F0EFFD02460B4640465B
:102F6800494608F089FFA0A3D3E9002308F05AFED8
:102F78004FF0000240F20003C4F2590308F052FE79
:102F880009F0EAF8ADF8140094F89C3494F89D24FC
:102F980043EA022394F89E2443EA024394F89F04E8
:102FA80094F8662494F8676442EA062694F868243C
:102FB80046EA024694F8692446EA026643EA006053
:102FC80008F0BAFD80468946304608F0B5FD02464D
:102FD8000B464046494608F04FFF83A3D3E9002338
:102FE80008F020FE4FF0000240F20003C4F259033B
:102FF80008F018FE09F0B0F8ADF8100094F8D035D4
:1030080094F8D12543EA022394F8D22543EA0243EF
:1030180094F8D30594F89A2594F89B6542EA062615
:1030280094F89C2546EA024694F89D2546EA0266ED
:1030380043EA006008F080FD80468946304608F083
:103048007BFD02460B464046494608F015FF66A33D
:10305800D3E9002308F0E6FD4FF0000240F2000338
:10306800C4F2590308F0DEFD09F076F8ADF80C005B
:1030780094F8043794F8052743EA022394F80627BE
:1030880043EA024394F8070794F8CE2694F8CF66EB
:1030980042EA062694F8D02646EA024694F8D12653
:1030A80046EA026643EA006008F046FD8046894623
:1030B800304608F041FD02460B464046494608F0B6
:1030C800DBFE49A3D3E9002308F0ACFD4FF0000272
:1030D80040F20003C4F2590308F0A4FD09F03CF8DB
:1030E800ADF8080094F8D23894F8D32843EA0223BC
:1030F80094F8D42843EA024394F8D50894F88E2823
:1031080094F88F1842EA012294F8901842EA014292
:1031180094F8914842EA046443EA006008F00CFD20
:1031280006460F46204608F007FD02460B46304685
:10313800394608F0A1FE2CA3D3E9002308F072FD5C
:103148004FF0000240F20003C4F2590308F06AFD90
:1031580009F002F8ADF804004FF07B032B702C4601
:103168004FF0540304F8013F9AF80230AB709AF814
:103178000330EB709DF89C302B719DF89D306B717E
:103188009DF89830AB719DF89930EB719DF89430AB
:103198002B729DF895306B729DF89030AB729DF84C
:1031A8009130EB729DF88C302B739DF88D306B73DA
:1031B8009DF88830AB739DF88930EB739DF88430A7
:1031C8002B749DF885306B749DF88030AB749DF836
:1031D8008130EB749DF87C302B759DF87D306B75D4
:1031E8009DF8783004E000BF0000000000807640C1
:1031F800AB759DF87930EB759DF874302B769DF89A
:1032080075306B769DF87030AB769DF87130EB7643
:103218009DF86C302B779DF86D306B779DF8683092
:10322800AB779DF86930EB779DF8643085F82030EE
:103238009DF8653085F821309DF8603085F822309A
:103248009DF8613085F823309DF85C3085F824308E
:103258009DF85D3085F825309DF8583085F8263082
:103268009DF8593085F827309DF8543085F8283076
:103278009DF8553085F829309DF8503085F82A306A
:103288009DF8513085F82B309DF84C3085F82C305E
:103298009DF84D3085F82D309DF8483085F82E3052
:1032A8009DF8493085F82F309DF8443085F8303046
:1032B8009DF8453085F831309DF8403085F832303A
:1032C8009DF8413085F833309DF83C3085F834302E
:1032D8009DF83D3085F835309DF8383085F8363022
:1032E8009DF8393085F837309DF8343085F8383016
:1032F8009DF8353085F839309DF8303085F83A300A
:103308009DF8313085F83B309DF82C3085F83C30FD
:103318009DF82D3085F83D309DF8283085F83E30F1
:103328009DF8293085F83F309DF8243085F84030E5
:103338009DF8253085F841309DF8203085F84230D9
:103348009DF8213085F843309DF81C3085F84430CD
:103358009DF81D3085F845309DF8183085F84630C1
:103368009DF8193085F847309DF8143085F84830B5
:103378009DF8153085F849309DF8103085F84A30A9
:103388009DF8113085F84B309DF80C3085F84C309D
:103398009DF80D3085F84D309DF8083085F84E3091
:1033A8009DF8093085F84F309DF8043085F8503085
:1033B8009DF8053085F8513020464FF05101FEF751
:1033C80039FC85F852004FF07D0385F85330227898
:1033D800CBF800204FF001002946FEF7CDF829B0C0
:1033E800BDE8F08F70B50C461646034613F8042F57
:1033F8000E2A00F23A814DF2CC31C2F200014FF0B0
:103408009A0C0CFB0212114611F820CF49784CEAAD
:10341800012C4FEA5C0C02F1180191F804E081F8E4
:1034280004C091F805E04FEA1C2C81F805C04FF064
:103438007B0C84F800C025464FF03F0C05F801CFFF
:1034480090F802C084F802C0C078E0701B7823713D
:1034580002F11C031B78637102F11D031B78A37131
:1034680002F10C031B78E37102F10D031B78237240
:1034780002F10E031B78637202F10F031B78A3722B
:1034880002F110031B78E37202F111031B78237316
:1034980002F112031B78637302F113031B78A37301
:1034A80002F114031B78E37302F115031B782374EC
:1034B80002F116031B78637402F117031B78A374D7
:1034C8000B78E37402F119031B78237502F11A03D0
:1034D8001B78637502F11B031B78A37502F12203A5
:1034E8001B78E37502F123031B78237602F124038A
:1034F8001B78637602F125031B78A37602F1280373
:103508001B78E37602F129031B78237702F12A035B
:103518001B78637702F12B031B78A37702F12C0346
:103528001B78E37702F12D031B7884F8203002F131
:103538002E031B7884F8213002F12F031B7884F8BE
:10354800223002F130031B7884F8233002F1310372
:103558001B7884F8243002F132031B7884F8253074
:1035680002F133031B7884F8263002F138031B7804
:1035780084F8273002F139031B7884F8283002F1E7
:103588003A031B7884F8293002F13B031B7884F84E
:103598002A3002F13C031B7884F82B3002F13D03FA
:1035A8001B7884F82C3002F13E031B7884F82D3008
:1035B80002F13F031B7884F82E3002F140031B7898
:1035C80084F82F3002F141031B7884F8303002F17F
:1035D80042031B7884F8313002F143031B7884F8E6
:1035E800323002F14C031B7884F8333002F14D037A
:1035F8001B7884F8343002F14E031B7884F8353098
:1036080002F14F031B7884F8363002F150031B781F
:1036180084F8373002F151031B7884F8383002F10E
:103628006A031B7884F8393002F16B031B7884F83D
:103638003A3002F16C031B7884F83B3002F16D02DA
:10364800137884F83C3028464FF03C01FEF7F2FA34
:1036580084F83D004FF07D0384F83E302A783260CC
:103668004FF001002146FDF787FF70BD2DE9F047B7
:103678008246884691464FF0000440F60045C4F261
:1036880001054FF480564FF005072846314603F0F0
:1036980019FF012809D0384607F024FE04F1010477
:1036A800A4B2B4F5FA6FF0D127E0B4F5FA6F24D2DA
:1036B8004FF07B0388F8003044464FF0060304F8C7
:1036C800013F9AF8023088F802309AF8033088F8F7
:1036D800033021782046A1F10301FEF7ABFA88F800
:1036E80004004FF07D0388F805302278C9F80020DF
:1036F8004FF001004146FDF73FFFBDE8F08700BFEE
:1037080000B583B0C3780A2B40D8DFE803F0061968
:103718001D2125292D3135383C0001AAFEF7AEFBC5
:103728004FF00A0007F0DEFD4AF2C863C2F2000358
:1037380018684FF000010A460B4607F027F925E004
:1037480001AAFEF79BFB21E001AAFEF7D9FB1DE0C9
:1037580001AAFFF747FE19E001AAFEF74FFB15E0A3
:1037680001AAFEF7F3FB11E001AAFEF7E1FA0DE06A
:1037780001AAFEF7A3FB09E000F0C4FD06E001AAD8
:10378800FFF774FF02E001AAFEF77CFA03B000BD60
:1037980070B548F2AC14C2F200044FF0010548F2CB
:1037A8001026C2F2000628462146FDF7B9FF012877
:1037B800F9D12046FEF7D8F90128F4D12046314640
:1037C800FFF79EFFEFE700BF08B540F60040C4F2E0
:1037D80001004FF4805103F07FFE40B940F60040ED
:1037E800C4F201004FF4805103F080FE07E040F678
:1037F8000040C4F201004FF4805103F079FE08BD87
:1038080000B583B04FF008004FF0010104F026FC2A
:103818004FF44053ADF804304FF004038DF80730EF
:103828004FF002038DF8063040F60040C4F2010064
:1038380001A903F0DDFD03B000BD00BF00000000DA
:103848002DE9F84F06460C464DF2CC33C2F2000380
:103858004FF09A0202FB013303F11803DB889BB295
:10386800012B23D140F23463C2F200031860002810
:10387800C0F2B28220F00046012E00F0AD824DF277
:10388800CC33C2F20003154602FB013404F1600494
:1038980063689BB243EA06436360A3684FEA134335
:1038A8004FEA034343EA1646A66095E24DF2CC334D
:1038B800C2F200034FF09A0202FB013303F118032E
:1038C800DB889BB2022B21D140F23463C2F20003A1
:1038D80058600028C0F2808220F000464DF2CC32B9
:1038E800C2F200024FF09A0505FB012404F16004BE
:1038F80063689BB243EA06436360A3684FEA1343D5
:103908004FEA034343EA1646A66065E24DF2CC331C
:10391800C2F200034FF09A0202FB013303F11803CD
:10392800DB889BB2032B2BD140F23463C2F2000335
:1039380098600028C0F2508240F23463C2F200035B
:103948001B6823F00043012B40F0468220F000461C
:103958004DF2CC32C2F200024FF09A0303FB01246D
:1039680004F1600463689BB243EA06436360A3689A
:103978004FEA13434FEA034343EA1646A6602BE295
:103988004DF2CC33C2F200034FF09A0202FB01332E
:1039980003F11803DB8813F0010F40F0FA814DF2B0
:1039A800CC33C2F2000302FB013303F11803DB88B6
:1039B8009BB2032B40F2ED8140F23463C2F2000364
:1039C800D860D3F80480C8EB0005284608F0B4F89E
:1039D80082468B4616A1D1E9000152465B4608F0A3
:1039E8004BFA4FF0000240F20003C4F2590308F00A
:1039F80019F908F0B1FB0746002E21DA26F0004637
:103A080040F23463C2F200039B68C3EB06063046FB
:103A180008F092F852465B4608F02EFA06A3D3E95E
:103A2800002308F0FFF808F097FB80B220E000BF01
:103A380000000000D0128341000000000088C3404D
:103A480040F23463C2F200039E6826F00046C8EBD9
:103A58000606304608F070F852465B4608F00CFA45
:103A680097A3D3E9002308F0DDF808F075FB80B2CE
:103A78004DF2CC33C2F200034FF09A0202FB04333A
:103A880033F8282F92B25B8842EA03439D420AD951
:103A98004DF2CC33C2F200034FF09A0202FB04331A
:103AA80003F128031D604DF2CC33C2F200034FF03E
:103AB8009A0202FB043333F82C2F92B25B8842EA55
:103AC80003439D420AD24DF2CC33C2F200034FF0B9
:103AD8009A0202FB043303F12C031D604DF2CC3330
:103AE800C2F200034FF09A0202FB0432134633F885
:103AF800341F89B2B3F802C041EA0C410D44198859
:103B08001D8059884FEA15455D80134633F8382FD4
:103B180092B25B8842EA03439F420AD94DF2CC3302
:103B2800C2F200034FF09A0202FB043303F1380398
:103B38001F604DF2CC33C2F200034FF09A0202FB31
:103B4800043333F83C2F92B25B8842EA03439F4226
:103B58000AD24DF2CC33C2F200034FF09A0202FBB4
:103B6800043303F13C031F604DF2CC33C2F200036F
:103B78004FF09A0202FB043202F14003998889B29D
:103B8800B3F806C041EA0C48198989B2B3F80AC0EB
:103B980041EA0C4918EB070849F100099988A3F88C
:103BA8000480D9884FEA1841D9801989A3F8089068
:103BB80059894FEA1941598102F1480293889BB209
:103BC80098420AD94DF2CC33C2F200034FF09A0260
:103BD80002FB043303F1480398804DF2CC33C2F260
:103BE80000034FF09A0202FB043303F14803DB8819
:103BF8009BB298423FBF4DF2CC33C2F2000302FBA6
:103C08000433483338BFD8804DF2CC33C2F20003B6
:103C18004FF09A0202FB043303F150035A8892B220
:103C2800998842EA014210445A8858809A884FEA93
:103C380010409880DA8892B21B8942EA03439E4278
:103C480016D94DF2CC33C2F200034FF09A0202FBB0
:103C5800043303F150035A6892B242EA06425A60AA
:103C68009A684FEA12424FEA024242EA16429A60C2
:103C78004DF2CC33C2F200034FF09A0202FB043338
:103C880003F158035A8892B29B8842EA03439E4242
:103C98001AD24DF2CC33C2F200034FF09A0202FB63
:103CA800043353F8582F92B242EA06421A605A680F
:103CB8004FEA12424FEA024242EA16425A6003E0D1
:103CC800000000000088C3404DF2CC33C2F200036C
:103CD8004FF09A0505FB043505F1600463889BB233
:103CE800A28843EA02431E4463886680A3884FEA99
:103CF8001646A68005F12006F38803F101039BB25E
:103D0800F3802B4633F8342F92B25B8842EA0342A1
:103D1800F3889BB2B2FBF3F205F130031A6005F1A8
:103D280050035A8892B2998842EA0142F18889B2CE
:103D3800B2FBF1F292B21A8005F14007B88880B25E
:103D4800B7F806C03B899BB27989F28840EA0C40F3
:103D580043EA014192B24FF0000308F0F1FC3860E9
:103D6800628892B2A38842EA0342F3889BB2B2FB0C
:103D7800F3F205F158056B689BB243EA02436B60A6
:103D8800AB684FEA13434FEA034343EA1243AB607D
:103D980022E04DF2CC33C2F200034FF09A0202FB4C
:103DA800043303F11803DB8813F0010F14D04DF22C
:103DB800CC33C2F20003154602FB043303F11803A7
:103DC800DB889BB2032B81BF40F23463C2F200034D
:103DD800DA685A6088BF9E60BDE8F88F2DE9F04F19
:103DE80087B04AF2CC66C2F20006D6F8683123F0F2
:103DF8000043039335464FF000044DF2CC38C2F22D
:103E080000084FF6703AC2F2000AB3469946574680
:103E1800B9F10F0F24D8D8F8F0A1D5F86C0120F02B
:103E2800004007F089FECDE90001504607F084FE06
:103E380002460B46DDE9000108F01EF8ACA3D3E901
:103E4800002307F0EFFE4FF0000240F20003C4F237
:103E5800590307F0E7FE08F07FF927F8140023E07C
:103E6800D8F8F0A1D5F8680120F0004007F064FE0A
:103E7800CDE90001504607F05FFE02460B46DDE93A
:103E8800000107F0F9FF9AA3D3E9002307F0CAFE5F
:103E98004FF0000240F20003C4F2590307F0C2FEDB
:103EA80008F05AF927F8140004F1010405F1040593
:103EB800142CADD14AF2CC63C2F20003D3F85832C5
:103EC80023F0004305935D464FF000044DF2CC3AD1
:103ED800C2F2000A4FF67039C2F200099846B8F1EA
:103EE8000F0F26D8DAF8246304F11E07D5F85C0210
:103EF80020F0004007F020FECDE90001304607F031
:103F08001BFE02460B46DDE9000107F0B5FF78A36A
:103F1800D3E9002307F086FE4FF0000240F20003C9
:103F2800C4F2590307F07EFE08F016F929F81700C5
:103F380025E0DAF8246304F11E07D5F8580220F0CA
:103F4800004007F0F9FDCDE90001304607F0F4FD27
:103F580002460B46DDE9000107F08EFF64A3D3E9B2
:103F6800002307F05FFE4FF0000240F20003C4F2A6
:103F7800590307F057FE08F0EFF829F8170004F185
:103F8800010405F10405142CA9D14AF2CC63C2F24C
:103F98000003D3F8483323F0004304935D464FF001
:103FA80000044DF2CC3AC2F2000A4FF67039C2F260
:103FB80000099846B8F10F0F26D8DAF8586404F1CA
:103FC8003C07D5F84C0320F0004007F0B5FDCDE9DB
:103FD8000001304607F0B0FD02460B46DDE900015E
:103FE80007F04AFF42A3D3E9002307F01BFE4FF076
:103FF800000240F20003C4F2590307F013FE08F070
:10400800ABF829F8170025E0DAF8586404F13C0702
:10401800D5F8480320F0004007F08EFDCDE90001F7
:10402800304607F089FD02460B46DDE9000107F03E
:1040380023FF2FA3D3E9002307F0F4FD4FF000027C
:1040480040F20003C4F2590307F0ECFD08F084F8CD
:1040580029F8170004F1010405F10405142CA9D16D
:104068005E464AF2CC63C2F20003D3F8C03323F0B1
:10407800004B35464FF000044DF2CC37C2F2000732
:104088004FF67039C2F20009B246BBF10F0F33D8B0
:10409800D7F8F034D7F8F4644FEA064646EA1346F0
:1040A80004F15A08D5F8C40320F0004007F044FD95
:1040B800CDE90001304607F03FFD02460B46DDE939
:1040C800000107F0D9FE0AA3D3E9002307F0AAFDEF
:1040D8004FF0000240F20003C4F2590307F0A2FDBA
:1040E80008F03AF829F8180032E000BFAFF3008072
:1040F8000000000000807640D7F8F034D7F8F46468
:104108004FEA064646EA134604F15A08D5F8C003B2
:1041180020F0004007F010FDCDE90001304607F01F
:104128000BFD02460B46DDE9000107F0A5FE68A37A
:10413800D3E9002307F076FD4FF0000240F20003B8
:10414800C4F2590307F06EFD08F006F829F81800C4
:1041580004F1010405F10405142C96D156464AF2DF
:10416800CC63C2F20003D3F8183623F000494FF0AD
:1041780000044DF2CC38C2F200084FF6703AC2F291
:10418800000AB9F10F0F26D8D8F8F45704F19607AA
:10419800D6F81C0620F0004007F0CEFCCDE900015F
:1041A800284607F0C9FC02460B46DDE9000107F086
:1041B80063FE47A3D3E9002307F034FD4FF0000264
:1041C80040F20003C4F2590307F02CFD07F0C4FFC6
:1041D8002AF8170025E0D8F8F45704F19607D6F81E
:1041E800180620F0004007F0A7FCCDE9000128469A
:1041F80007F0A2FC02460B46DDE9000107F03CFE91
:1042080033A3D3E9002307F00DFD4FF0000240F27D
:104218000003C4F2590307F005FD07F09DFF2AF8D3
:10422800170004F1010406F10406142CA9D1039A1D
:104238000F2A0AD84DF2CC33C2F20003B3F8EE21AC
:1042480002F1FF3292B2A3F8EE21059B0F2B0AD898
:104258004DF2CC33C2F20003B3F8222302F1FF324D
:1042680092B2A3F82223049A0F2A0AD84DF2CC332B
:10427800C2F20003B3F8562402F1FF3292B2A3F857
:104288005624BBF10F0F0FD84DF2CC33C2F2000306
:10429800B3F8F0349BB2032B9FBF4DF2CC33C2F27C
:1042A80000030122A3F8F024B9F10F0F0AD84DF248
:1042B800CC33C2F20003B3F8F22702F1FF3292B214
:1042C800A3F8F22707B0BDE8F08F00BFAFF3008076
:1042D800000000000080764000B585B000904FF0E7
:1042E800000301930293039344F66500C0F60000AF
:1042F8004EF60441C0F600014FF4007207F066F86C
:1043080005B000BD2DE9F84F4FF0000B4DF2CC3849
:10431800C2F200084FF001044FF0020A4FF00A06FB
:104328004FF004094FF09A0303FB0BF707F1200540
:104338004544204629465246FDF71EF9304606F008
:10434800D1FF204605F102014A46FDF715F930462E
:1043580006F0C8FF07F108054544204605F10601A7
:104368005246FDF709F9304606F0BCFF204605F134
:1043780002015246FDF700F9304606F0B3FF07F197
:104388009801204641445246FDF7F6F8304606F0BB
:10439800A9FF07F17003434407EB080202F19802F2
:1043A800118889B201F1FF31204603EB41015246E1
:1043B800FDF7E2F8304606F095FF07EB08012046C6
:1043C80001F166014A46FDF7D7F8304606F08AFF44
:1043D80007F128054544204629464A46FDF7CCF80A
:1043E800304606F07FFF204605F104014A46FDF7F6
:1043F800C3F8304606F076FF07F130012046414405
:104408004A46FDF7B9F84FF4967006F06BFF0BF1CA
:10441800010BBBF11A0F85D14AF2CC64C2F2000439
:1044280004F543654FF001064FF064074FF4C87870
:10443800304621463A46FDF79FF8404606F052FFBF
:1044480004F17804AC42F3D14FF0000443F65C3534
:10445800C2F200054FF001064FF0C8074FF4C878C4
:1044680044F2506A304604EB05013A46FDF784F8F9
:10447800404606F037FF04F5FA645445F2D14FF090
:1044880000044FF09A064DF2CC35C2F200054FF009
:1044980001074FF028084FF4C87A06FB0451384644
:1044A80001F170014246FDF767F8504606F01AFF21
:1044B80004F10104032CF0D1BDE8F88F10B541F6E2
:1044C8000004C4F2010420464FF4006103F00EF822
:1044D80020464FF4806103F00BF820464FF400515A
:1044E80003F006F820464FF4005102F0FFFF204683
:1044F8004FF4806102F0FAFF20464FF4806102F029
:10450800F7FF42F64873C2F200031A7842F010022D
:104518001A7010BD2DE9F84542F64873C2F200033F
:104528001A786FF386121A7042F2D00448F2F850E3
:10453800C2F200004FF00001224608F07FFE4BF265
:10454800FC20C2F200004FF00001224608F076FE7F
:104558004AF2CC60C2F200004FF000014FF443620F
:1045680008F06CFE4FF67030C2F200004FF0000108
:104578004FF4967208F062FE4FF000054DF2CC370A
:10458800C2F200074FF09A082B4640F2000CCFF613
:10459800FF7C4FF0FF3608FB057202F10801CB8063
:1045A800114621F8103F4B808B80CB80114621F8B3
:1045B800183F4B808B80CB80114621F8203F08683C
:1045C80080B20860486800EA0C004860CB8002F1BD
:1045D8006004616889B26160A16801EA0C01A160A8
:1045E800114651F8680F80B20860486800EA0C006C
:1045F8004860CB8002F198010B8002F128010B6022
:1046080002F130010B6002F12C010E60114631F805
:10461800340F0B8048884B8002F148008380114694
:1046280021F8503FC68048884B8088888B8002F1EB
:1046380038000360104640F8403F02F13C0ACAF8CF
:104648000060B0F804A08380B0F806A0C380B0F87A
:1046580008A00381B0F80AA04381486880B2486086
:10466800886800EA0C00886002F15802516889B233
:104678005160916801EA0C019160116841EA0C01EE
:10468800116051686FEA11416FEA01415160628817
:104698006380A288A38005F101051A2D7FF47BAF02
:1046A800BDE8F8852DE9F0474FF0000635464EF293
:1046B8007037C2F2000743F65C34C2F200044FF4CC
:1046C8007A7A4DF2CC38C2F200084FF09A091DE010
:1046D8000EEB030134F81100BCF80410C1EB000123
:1046E80022F8021B03F10103B3F5007FF0D14EF667
:1046F8007071C2F2000106EB0700314400F074F952
:1047080005F1010506F58066032D0AD007EB852221
:104718004FF000030AFB05FE09FB058101F1080CB7
:10472800D6E7BDE8F08700BF2DE9F04F85B04FF020
:1047380000040DF10C0941F60008C4F2010840F22A
:104748004007C2F200074DF2CC3AC2F2000A7DE0FF
:104758004046314602F0CCFE404602F0B9FE09F868
:1047680005004046314602F0C1FE05F10105042D61
:10477800EED14FF000034FF09A009EB21D4657F855
:104788002320A24259D800FB03A101F12001098886
:1047980089B202EB8102A2424FD94FF09A0B0BFB70
:1047A80003AB0BF1180BBBF8063003F101039BB206
:1047B800ABF806300399019108463146FFF740F8F7
:1047C800BBF806309BB21D2B0FD85B46DA8892B235
:1047D8004AF2CC63C2F20003C5EB051102EB4102B9
:1047E80002F1FF32019943F82210092E11D14FF03E
:1047F8009A0303FB05A303F11803DA8892B202F1C6
:10480800FF3248F2F853C2F20003019943F822102C
:1048180017E00B2E15D14FF09A0303FB05A303F104
:104828001803DA8892B202F1FF324BF2FC23C2F28B
:104838000003019943F8221003E003F101031A2B46
:104848009BD104F10404B4F5002F04D04FF0000507
:104858004FF400667CE705B0BDE8F08F2DE9F84F0E
:104868004AF2C86AC2F2000A42F64878C2F2000860
:104878004FF001094FF00A064FF4804741F6000552
:10488800C4F201054FF0030BDAF800004FF0000105
:104898004FF0FF320B4605F089FFFFF73BFEFFF7AD
:1048A8000DFE98F8003069F3030388F800304FF0E4
:1048B8000004304606F016FD2846394602F002FE8E
:1048C800012817D198F800306FF3041388F80030E6
:1048D800FFF72AFFFBF7E2FFFFF780FA98F80030AE
:1048E8004FF0020262F3030388F80030B4F5FA7F50
:1048F800CAD305E004F10104A4B2B4F5FA7FD8D113
:1049080098F800306BF3030388F80030BCE700BF69
:104918000346B0B14FF400414FF0000C4FF00F02C6
:1049280001EB4C0000FA02F002F1FF32834224BF8F
:104938008C44C0EB03034FEA5101B2F1FF3FEFD1C2
:1049480063461846704700BF2DE9F84F07468B4667
:104958004FF00008C146C2464DF2E436C0F60006E4
:104968004DF2E474C0F6000436E0995FF85E00FB8F
:1049780001F04FEAE03002F180014FEAC1514FEAFD
:10498800D15134F9111000FB01F10CEBE13C4FEA75
:10499800C2514FEAD15134F9111000FB01F0AEEBCE
:1049A800E03E03F102032A44B3F5806FDDD14FEAFC
:1049B800EC1C4FEAEE1E0EFB0EFE0CFB0CEC4FF04F
:1049C800640303FB0CF0FFF7A3FF2BF8150008F1B5
:1049D8000108B8F5007F05D045464A465346D646F5
:1049E800D446C2E7BDE8F88F2DE9F04F85B00190B5
:1049F80003914FF0000302934DF6E43BC0F6000B21
:104A08004EF2E438C0F600085DE0019B185F07F03D
:104A1800CDFC5BF8141007F01DFD824605F18003FC
:104A28004FEAC3534FEAD35358F8231007F012FD47
:104A38000146384607F006FC07464FEAC5534FEAD9
:104A4800D353504658F8231007F004FD014630466A
:104A580007F0F6FB064604F102044D44B4F5806FF6
:104A6800D3D138464FF06E5107F0F4FC0546304676
:104A78004FF06E5107F0EEFC04462846294607F031
:104A8800E9FC05462046214607F0E4FC294607F0E4
:104A9800D9FB40F20001C4F2C83107F0DBFC07F093
:104AA8006DF806F0B5FD4FEA490907F075FB07F008
:104AB80021FE039B23F80900029B03F101030293E3
:104AC800B3F5807F08D0DDF808904FF000052C463C
:104AD8004FF00006374698E705B0BDE8F08F00BFF5
:104AE80010B483B04FF000030193019B984215D98D
:104AF8004FF0000441F25B720094009B934206D889
:104B0800009B03F101030093009B9342F8D9019B9A
:104B180003F101030193019B8342EDD303B010BC61
:104B2800704700BF82B04FF00003ADF80630BDF803
:104B380006309BB2032B0BD8BDF8063003F10103F6
:104B48009BB2ADF80630BDF806309BB2032BF3D903
:104B580002B0704782B04FF00003ADF80630BDF8E0
:104B680006309BB20B2B0BD8BDF8063003F10103BE
:104B78009BB2ADF80630BDF806309BB20B2BF3D9CB
:104B880002B0704782B04FF00003ADF80630BDF8B0
:104B980006309BB2102B0BD8BDF8063003F1010389
:104BA8009BB2ADF80630BDF806309BB2102BF3D996
:104BB80002B0704782B04FF00003ADF80630BDF880
:104BC80006309BB2152B0BD8BDF8063003F1010354
:104BD8009BB2ADF80630BDF806309BB2152BF3D961
:104BE80002B0704782B04FF00003ADF80630BDF850
:104BF80006309BB21D2B0BD8BDF8063003F101031C
:104C08009BB2ADF80630BDF806309BB21D2BF3D928
:104C180002B0704782B04FF00003ADF80630BDF81F
:104C280006309BB2984220D94FF00002ADF804201C
:104C3800BDF804309BB2282B0BD8BDF8043003F123
:104C480001039BB2ADF80430BDF804309BB2282BA9
:104C5800F3D9BDF8063003F101039BB2ADF8063075
:104C6800BDF806309BB28342E0D302B0704700BF64
:104C780030B40B4619B94FF0FF0C654616E04FF0FB
:104C880000024FF0FF0C654640F2A404C2F2000493
:104C9800815C8CEA010114F801C085EA0C0C2144FE
:104CA80091F8005102F101029A42F1D10CEB052C66
:104CB8001FFA8CF030BC704730B40B4619B94FF06E
:104CC800FF0C654616E04FF000024FF0FF0C6546FA
:104CD80040F2A404C2F20004815C8CEA010114F8D9
:104CE80001C085EA0C0C214491F8005102F101023F
:104CF8009A42F1D10CEB052C1FFA8CF030BC7047AE
:104D080000EBD10001F007014FF0010303FA01F1B4
:104D1800037841EA03010170704700BF00EBD1003E
:104D280001F007014FF0010303FA01F1037823EAC8
:104D380001010170704700BF0028AFBF80B2404238
:104D48004004400C704700BF10F4004F1EBF20F411
:104D58000040404280B200B2704700BF81422EBF7F
:104D6800C0EB0100C0434018704700BF4FF000007F
:104D7800704700BF4FF00000704700BF4FF00000C1
:104D8800704700BF4FF00000704700BF4FF400535A
:104D980053604FF0000070474FF00100704700BFAC
:104DA8004FF00100704700BF40F24463C2F20003B5
:104DB8001B6843B940F24463C2F200034FF69C42B9
:104DC800C2F200021A6040F24463C2F2000318689B
:104DD80001441960704700BF4FF000039847FEE791
:104DE800704700BFEFF309800046704780F30988D9
:104DF800704700BFEFF308800046704780F30888CB
:104E0800704700BFEFF31280704700BF80F311882E
:104E1800704700BFEFF31080704700BF80F3108821
:104E2800704700BFEFF31380704700BF80F313880B
:104E3800704700BFEFF31480704700BF80F31488F9
:104E4800704700BF00BA704740BA7047C0BA704791
:104E580090FAA0F0704700BFD0E84F0FC0B270477B
:104E6800D0E85F0F80B2704750E8000F704700BF6E
:104E7800C1E8400F704700BFC1E8500F704700BF3E
:104E880041E80000704700BF40F0BE6040F42020B9
:104E98004EF60053CEF20003D8607047C3786BB368
:104EA8004EF60053CEF20003DB686FEA0303C3F348
:104EB8000223C3F10402417801FA02F24FF00F0114
:104EC80021FA03F3817803EA010343EA0203027833
:104ED8004FEA0310C0B24EF20013CEF2000302EB09
:104EE800030181F800034FEA521102F01F024FF04C
:104EF800010000FA02F243F8212010E003784FEA9B
:104F0800531203F01F034FF0010101FA03F14EF2AF
:104F18000013CEF2000302F1200243F8221070477A
:104F280021F0604121F07F0141EA00014EF6005373
:104F3800CEF200039960704741B14EF60053CEF2AD
:104F480000031A6940EA0200186107E04EF60053B0
:104F5800CEF200031A6922EA00001861704700BF08
:104F6800042801BF4EF21003CEF200031A6842F083
:104F780004020FBF1A604EF21003CEF200031A6843
:104F88001CBF22F004021A60704700BF10B44368C7
:104F980023F4702323F480730A6843EA02030A792E
:104FA80043EA0223436084688A68CB6842EA0302C2
:104FB8004FF2FD73CFF6F17304EA030342EA0303E9
:104FC8004A7943EA42038360C26A22F470020B7C86
:104FD80003F1FF33DBB242EA0353C36210BC7047EC
:104FE8004FF000030360037143718360C3604FF0A7
:104FF80001030374704700BF21B1836843F00103C4
:10500800836003E0836823F001038360704700BF77
:1050180021B1836843F48073836003E0836823F4D9
:1050280080738360704700BFC9B222B1436841EA08
:105038000301416003E0436823EA010141607047CE
:10504800836843F008038360704700BF8068C0F33B
:10505800C0007047836843F004038360704700BF53
:105068008068C0F38000704721B1836843F4A003CF
:10507800836003E0836823F4A0038360704700BF64
:105088008068C0F380507047436823F4604301F19F
:10509800FF3143EA41334360704700BF21B14368A1
:1050A80043F40063436003E0436823F40063436010
:1050B800704700BF30B4092910D9C56801EB410C0D
:1050C800ACF11E0C4FF0070404FA0CF425EA0404B2
:1050D80003FA0CFC44EA0C03C3600DE0056901EB1C
:1050E800410C4FF0070404FA0CF425EA040403FA0F
:1050F8000CFC44EA0C030361062A10D8446B02F145
:10510800FF3202EB82024FF01F0303FA02F324EA94
:10511800030301FA02F143EA0102426322E00C2A86
:1051280010D8046B02EB8202A2F123024FF01F0396
:1051380003FA02F324EA030301FA02F143EA010243
:1051480002630FE0C46A02EB8202A2F141024FF04F
:105158001F0303FA02F324EA030301FA02F143EA04
:105168000102C26230BC704721B1836843F48013E6
:10517800836003E0836823F480138360704700BF73
:10518800C06C80B2704700BF42F24C43C4F20103C6
:105198001868704721B1436843F48063436003E0B3
:1051A800436823F480634360704700BF21B14368BC
:1051B80043F48053436003E0436823F4805343601F
:1051C800704700BF836823F4E04341EA0303836028
:1051D800704700BF21B1836843F40043836003E054
:1051E800836823F400438360704700BF21B183685C
:1051F80043F40213836003E0836823F4021383609B
:10520800704700BF8068C0F34050704730B4092928
:1052180010D9C56801EB410CACF11E0C4FF0070426
:1052280004FA0CF425EA040403FA0CFC44EA0C031F
:10523800C3600DE0056901EB410C4FF0070404FA67
:105248000CF425EA040403FA0CFC44EA0C03036199
:10525800836BC3F3015CCCEB020202F10202D2B20F
:1052680002EB82024FF01F0C0CFA02FC23EA0C033B
:1052780001FA02F143EA0103836330BC704700BFBF
:10528800836B23F4401301F1FF3143EA0153836335
:10529800704700BF82B04FF0000301930190019B5B
:1052A8000B440193019B1A6002B0704782B04FF023
:1052B800000301930190019B03F128030B44019320
:1052C800019B186880B202B0704700BF436823F49E
:1052D800400323F4007341EA03034360704700BFAF
:1052E80041628262704700BF436823F01F0341EAAE
:1052F80003034360704700BF40B142F20043C4F269
:1053080001039A6842F400029A6007E042F20043FF
:10531800C4F201039A6822F400029A60704700BF41
:10532800036819420CBF0020012070476FEA010191
:10533800016070474268036813EA112308BF002020
:1053480004D0C9B211420CBF00200120704700BF31
:105358006FEA11210160704708B542F20043C4F2B8
:10536800010398420CD14FF400704FF0010102F094
:105378009DFE4FF400704FF0000102F097FE24E00C
:1053880042F60003C4F2010398420CD14FF4806046
:105398004FF0010102F08AFE4FF480604FF00001E7
:1053A80002F084FE11E043F60043C4F20103984280
:1053B8000BD14FF400404FF0010102F077FE4FF49B
:1053C80000404FF0000102F071FE08BD48F204638E
:1053D800C4F20D231860704748F20063C4F20D232D
:1053E8001860704748F28863C4F20D23186070474C
:1053F80046F60042C4F20002938D23F460734FEA2C
:1054080003434FEA134340EA03039385704700BF01
:1054180046F60042C4F20002938D23F07F034FEA60
:1054280003434FEA134340EA03039385704700BFE1
:1054380082B04FF00003019346F60043C4F2000324
:105448000193019B03440193019B196002B07047CB
:1054580082B04FF00003019346F60043C4F2000304
:105468000193019B03440193019B188880B202B009
:10547800704700BF48F2A063C4F20D231868C0B299
:10548800704700BF46F60043C4F200039A8E92B2FA
:1054980042F001029A86704748F2A463C4F20D23D1
:1054A8001868C0B2704700BF46F60043C4F2000354
:1054B8009A8E92B242F002029A86704708B54FF06F
:1054C800010002F01BFE4FF0000002F017FE08BDBD
:1054D800036823F002030360036843F001030360D9
:1054E800436813F0010F0BD14FF000034FF6FF7C18
:1054F800426812F0010F03D103F101036345F7D1AC
:10550800436813F0010F08BF002072D08B79012B7C
:1055180003BF036843F08003036003681CBF23F0E4
:1055280080030360CB79012B03BF036843F040037A
:10553800036003681CBF23F0400303600B7A012B50
:1055480003BF036843F02003036003681CBF23F014
:10555800200303604B7A012B03BF036843F0100359
:10556800036003681CBF23F0100303608B7A012BD0
:1055780003BF036843F00803036003681CBF23F0FC
:1055880008030360CB7A012B03BF036843F00403CD
:10559800036003681CBF23F004030360CA788B7898
:1055A8004FEA837343EA02630A7943EA02434A797A
:1055B80043EA02520B8803F1FF3342EA0303C36153
:1055C800036823F001030360436813F0010F0BD055
:1055D8004FF000034FF6FF71426812F0010F03D03D
:1055E80003F101038B42F7D1406880F0010000F01D
:1055F8000100704730B490F80AC04FF0010101FA79
:105608000CF146F20043C4F20003D3F8002242F042
:105618000102C3F80022D3F81C426FEA010202EA31
:105628000404C3F81C42037BCBB946F20043C4F21E
:105638000003D3F80C4202EA0404C3F80C42C588FC
:10564800448844EA05440CF1480C43F83C408588FA
:10565800048844EA054403EBCC035C601AE0012BA0
:1056680018D146F20044C4F20004D4F80C3241EADE
:105678000303C4F80C320588438843EA05430CF158
:10568800480C44F83C308588C38843EA054304EB5A
:10569800CC046360C37A53B946F20043C4F20003F2
:1056A800D3F8044202EA0404C3F8044209E046F2CB
:1056B8000043C4F20003D3F8044241EA0404C3F8E7
:1056C8000442038953B946F20043C4F20003D3F8F5
:1056D800144202EA0402C3F814220BE0012B01BFB2
:1056E80046F20043C4F20003D3F814220A4308BF69
:1056F800C3F81422437B012B01BF46F20043C4F2D6
:105708000003D3F81C22114308BFC3F81C1246F249
:105718000043C4F20003D3F8002222F00102C3F8C8
:10572800002230BC704700BF4FF000038371C37183
:10573800037243728372C3728370C3704FF00303A2
:1057480003714FF0020343714FF001030380704768
:1057580046F20043C4F20003D3F8002242F00102EB
:10576800C3F80022D3F8002222F47C5222F00E0261
:10577800C3F80022D3F8002242EA0022C3F800222C
:10578800D3F8002222F00102C3F80022704700BFBC
:1057980021B1036843F48033036003E0036823F412
:1057A80080330360704700BFB1B1036843F08003E2
:1057B8000360D0F8843143F48073C0F88431D0F8A2
:1057C800943143F48073C0F89431D0F8A43143F491
:1057D8008073C0F8A43115E0036823F080030360E8
:1057E800D0F8843123F48073C0F88431D0F8943130
:1057F80023F48073C0F89431D0F8A43123F4807373
:10580800C0F8A431704700BF70B40346826812F034
:10581800806F18BF00200DD19A6812F0006F18BF72
:10582800012007D19A6812F0805F08BF042060D079
:105838004FF00200844600F1180203EB02121468CC
:1058480004F0010414600A7A62B900F1180203EB4B
:10585800021215680E684C7A44EA465444EA050474
:1058680014600DE000F1180403EB041425684E6879
:1058780042EAC60242EA05024D7A42EA050222607D
:105888008A7A02F00F028A720CF1180403EB0414EE
:10589800224652F8045F25F00F05156015688E7AC8
:1058A80046EA050515608A7B4D7B4FEA054545EAC2
:1058B8000265CA7A45EA02050A7B45EA022503EB36
:1058C8000C1303F5C472156091F812C04A7C4FEAB4
:1058D800024242EA0C6291F80FC042EA0C02097CCB
:1058E80042EA012203F5C6731A60236843F00103F4
:1058F800236070BC704700BF01290DD021B1022977
:1059080018BF002317D10FE0826840F20303C0F2EA
:10591800004302EA03030EE0826840F20033C0F657
:10592800000302EA030306E0826840F20003C1F2C2
:10593800030302EA030340F20302C0F20042934267
:1059480014D001D87BB10BE040F20032C0F600025F
:1059580093420BD040F20002C1F20302934205D0F9
:105968004FF0000004E04FF0020001E04FF00100AA
:10597800704700BF012908D011B102290ED109E0F2
:10598800836843F08003836008E0836843F400433E
:10599800836003E0836843F400038360704700BFBB
:1059A80030B40B4601F11B0400EB0414246804F026
:1059B8000404147244B901F11B0400EB04142468B4
:1059C8004FEA5454146007E001F11B0400EB04147F
:1059D80024684FEAD404546003F11B0400EB041458
:1059E800256805F0020C82F809C054F8045F05F038
:1059F8000F0C82F80AC024684FEA142C82F813C0EE
:105A080000EB031303F5DC742568D57225684FEAAB
:105A1800152C82F80CC025684FEA154C82F80DC089
:105A280024684FEA146C82F80EC003F5DE731C6814
:105A3800D4731C684FEA142C82F810C01C684FEA13
:105A4800144C82F811C01B684FEA1363937421B990
:105A5800C36843F02003C36003E0036943F02003F5
:105A6800036130BC704700BF21B9C36843F020030D
:105A7800C36003E0036943F020030361704700BF7C
:105A880019B9C06800F0030005E0012912BF002021
:105A9800006900F003007047E1B9036823F00303CD
:105AA80043F001030360436803F00303012B09D0AB
:105AB8004FF6FF73426802F00302012A02D013F185
:105AC800FF33F7D1406800F00300012814BF00201D
